:100000000C9405010C942D010C942D010C942D01E0
:100010000C942D010C942D010C942D010C942D01A8
:100020000C942D010C942D010C949E140C940D1520
:100030000C942D010C942D010C942D010C942D0188
:100040000C942D010C942D010C942D010C942D0178
:100050000C942D010C942D010C942D010C9454142E
:100060000C942D010C942D010C942D010C942D0158
:100070000C942D010C942D010C942D010C942D0148
:100080000C942D010C942D010C942D010C942D0138
:100090000C943F170C942D010C942D010C942D0100
:1000A0000C942D010C942D010C942D014E414E49C0
:1000B0004E495459494E46CDCCCC3D0AD7233C1726
:1000C000B7D13877CC2B329595E6241FB14F0A0073
:1000D0000020410000C84200401C4620BCBE4CCA63
:1000E0001B0E5AAEC59D74080B00020202000009E7
:1000F0000400000102020000052400100105240193
:1001000001010424020605240600010705810310ED
:10011000004009040100020A000000070502024035
:1001200000000705830240000004030904120100D7
:1001300002EF020140412337800001010203014127
:10014000726475696E6F204C4C430041726475692E
:100150006E6F204D6963726F000706050401000889
:100160000A0B0C0D0900000000250028002B002EB2
:100170000031000404040404030405020202020422
:100180000302020202060606060606040402020232
:100190000404040802011040804010204080408088
:1001A000080204018040201002011080102040400D
:1001B000200000000200090F0000030401000C00F1
:1001C000000000000000000000000000000000002F
:1001D00005010902A1010901A10085010509190113
:1001E0002903150025019503750181029501750507
:1001F000810305010930093109381581257F75080A
:1002000095038106C0C05F18631E11241FBECFEF87
:10021000DAE0DEBFCDBF23E0AEECB1E001C01D925D
:10022000AF37B207E1F711E0A0E0B1E0EAE4FAE4A9
:1002300002C005900D92AE3CB107D9F711E0C4E0C1
:10024000D1E004C02197FE010E94E421C330D10710
:10025000C9F70E9411190C9418250C940000CF9333
:10026000DF93FC01818190911B03482F490F552793
:10027000551F483051059CF5A281B381109709F5AF
:1002800027E133E033832283208120931903809375
:100290001A0380911C03820F808320911D03A22FDB
:1002A000B0911E038A2F821B8917E8F481813D914A
:1002B000C82FD0E0CA5EDE4F38838F5F8183F2CFD4
:1002C000D90118962D913C91199721153105C1F747
:1002D00027E133E019963C932E931897D5CF80E011
:1002E000DF91CF91089581E0FBCF08950895FC013F
:1002F00080916402882311F13FB7F89482E08093E3
:10030000E9002091F200822F90E01816190614F4EB
:1003100081E090E0882339F0289A44E64093630214
:100320004091F1004083222339F02091F200211105
:1003300003C02BE62093E8003FBF08958FEF9FEFA7
:100340000895DC01FB0112962C911297848195810E
:100350002817190641F491818081813A31F49D7FFB
:1003600081E0913009F080E008958132E1F79B301F
:1003700029F482811F968C9381E008959A3099F731
:10038000828150968C93F8CFDC01FB0188E4808356
:1003900089E4818384E482831D969C911D979F70DC
:1003A0009F5B93831D968D919C9124E096958795F4
:1003B0002A95E1F78F708F5B848385E008958091A3
:1003C0003B0281110DC082E08093370284E080936C
:1003D000380210923A021092390281E080933B0277
:1003E00087E392E00895282F30E0F901EF54FE4FA3
:1003F0009491F901EE56FE4F84912D583E4FF9012C
:100400002491222309F430C09923E9F091509F30C0
:10041000D0F4E92FF0E0E15FFD4F0C94E4213D02C0
:1004200041021E0235023902230223022302440242
:100430004A024E025202580223025C02909180004E
:100440009F7790938000E22FF0E0EE0FFF1FEB59B3
:10045000FE4FA591B4919FB7F894EC91611132C011
:1004600080958E238C939FBF0895909180009F7DEF
:10047000E8CF90918000977FE4CF94B59F7794BDAB
:10048000E2CF94B59F7DFBCF909190009F779093A2
:100490009000D9CF909190009F7DF9CF90919000DE
:1004A000977FF5CF9091C0009F779093C000CBCFFE
:1004B0009091C0009F7DF9CF9091C200977F90935B
:1004C000C200C1CF8E2BCECFFC0183858F3F19F0A8
:1004D00061E00C94F3010895FC0180819181892BE6
:1004E00039F0A281B3819C9111968C919CBD8DBDF8
:1004F00083858F3F19F060E00C94F30108958230FA
:10050000910538F0880F991F880F991F059701975B
:10051000F1F70895BF92CF92DF92EF92FF920F937F
:100520001F93CF93DF93EC0188819981892B81F010
:100530006EBD0DB407FEFDCF0EB5802FDF91CF91BC
:100540001F910F91FF90EF90DF90CF90BF90089593
:100550008885998511E0892B09F010E8BB24B394B4
:10056000862F812309F0B12CF62E2C813D814E81FE
:100570005F8160E271EA87E090E00E94C221E22E92
:1005800000E0C22ED12CEE2019F0C6010E947F029D
:100590008A85982F977F09F044C08D858F3F89F019
:1005A0009F2D912381E009F480E08B1551F0EF85B8
:1005B000F8898F89992379F19081892B8083BB24D5
:1005C000B394E989FA898081998D892B8083EE2003
:1005D00019F0C6010E947F028E858F3F39F0EB89AA
:1005E000FC898081988D892309F0012BE989FA899A
:1005F0009081898D80958923808388859985892B31
:1006000009F067C0110F1111BECF8E858F3F09F021
:1006100094CF0F2D92CF9081809589238083B12C28
:10062000D0CF8C3099F58D858F3F49F0EF85F889D3
:100630008F899F2D912331F19081892B8083E989C6
:10064000FA899081898D809589238083EE2019F025
:10065000C6010E947F02E989FA898081998D892BE0
:100660008083EE2019F0C6010E947F028E858F3FA5
:1006700021F2EB89FC898081988D892309F4BDCF13
:10068000012BBBCF908180958923D8CFE989FA8946
:100690008081998D892B8083EE2019F0C6010E94FC
:1006A0007F028D858F3F49F0EF85F8898F899F2DD7
:1006B000912359F09081892B8083E989FA8990816F
:1006C000898D809589238083D1CF908180958923DE
:1006D000F3CF169598CF8F929F92AF92BF92CF9201
:1006E000DF92EF92FF920F931F93CF93DF937C01E2
:1006F0004B016A01B22EA32E0E946C02E401C80CC9
:10070000D91CCC15DD0569F4CB2DDA2D0C0F1D1F7E
:10071000C017D10759F06FEFC7010E948A02899371
:10072000F7CF6991C7010E948A02EBCFC7010E94EF
:10073000640281E0DF91CF911F910F91FF90EF90C4
:10074000DF90CF90BF90AF909F908F9008958F9241
:100750009F92AF92BF92CF92DF92EF92FF920F9350
:100760001F93CF93DF937C01B62EA72E6A01490118
:100770000E946C02E401080D191DC017D10761F435
:10078000CB2DDA2DCC0EDD1ECC15DD0551F0699197
:10079000C7010E948A02F8CF6991C7010E948A02AC
:1007A000ECCFC7010E94640281E0DF91CF911F91DD
:1007B0000F91FF90EF90DF90CF90BF90AF909F9000
:1007C0008F9008953FB7F89480913302909134024E
:1007D000A0913502B091360226B5A89B05C02F3FE7
:1007E00019F00196A11DB11D3FBFBA2FA92F982F57
:1007F0008827BC01CD01620F711D811D911D42E052
:10080000660F771F881F991F4A95D1F708958F9219
:100810009F92AF92BF92CF92DF92EF92FF924B01E5
:100820005C010E94E2036B017C010E94E2036C19EF
:100830007D098E099F09683E734081059105A8F3E3
:1008400021E0821A9108A108B10888EEC80E83E061
:10085000D81EE11CF11C81149104A104B10429F7F4
:10086000FF90EF90DF90CF90BF90AF909F908F90D0
:1008700008952FB7F89460912F0270913002809103
:100880003102909132022FBF08954091140250918D
:100890001502209112023091130242175307B4F44B
:1008A0009091E8009570E1F39091E80092FD19C0F5
:1008B0008093F100809114029091150201968F733C
:1008C0009927892B19F48EEF8093E8008091140208
:1008D000909115020196909315028093140281E085
:1008E000089580E00895EF92FF920F931F93CF93A6
:1008F000DF93F82E192FE62E042F81E0860F880F44
:100900000E94450483E00E944504CF2DD12FEC0EB8
:10091000FD2EF11CCE15DF05B9F007FF13C0FE0157
:1009200084910E944504182F80E00E944504812391
:1009300021968111EFCFDF91CF911F910F91FF9001
:10094000EF9008958881EDCF81E0F5CFDF92EF92AF
:10095000FF920F931F93CF93DF93D82E8A01EB0161
:100960007B01E40EF51ECE15DF0559F0D7FE12C04F
:10097000FE0184910E94450421968111F4CF0FEF6E
:100980001FEFC801DF91CF911F910F91FF90EF9062
:10099000DF9008958881EECFEF92FF920F931F931F
:1009A000CF93DF93FB012081213871F5238122321F
:1009B00059F5DC0112964C912481358142171306BA
:1009C00019F5EC010B851C85F12CE12C01151105A5
:1009D00089F0F801448155816281738180E80E9429
:1009E000A6048F3F980749F0E80EF91ED8010D9133
:1009F0001C91ECCF81E08F87C701DF91CF911F91D0
:100A00000F91FF90EF90089590E080E0F6CFCF93A4
:100A1000DF93CDB7DEB769970FB6F894DEBF0FBE90
:100A2000CDBFFC01DB018C918F5F8C939E012D5F0C
:100A30003F4F8DE0D9011D928A95E9F729E029837E
:100A400084E08A8391E09D8383E08E832A8721E27C
:100A50002B879C879D879F8722E2288B27E02B8B03
:100A600025E02C8B8E8B20E430E0388F2F8B998FF4
:100A700082818B8395858685998B8A8B838180681B
:100A80008D8B49E150E0BE016F5F7F4F80E00E9497
:100A9000A60469960FB6F894DEBF0FBECDBFDF91F6
:100AA000CF9108950F931F93CF93DF931F92CDB7EC
:100AB000DEB782E0898342E450E067EE70E080E8D0
:100AC0000E94A6040E94DF01DC0112960D911C9188
:100AD0000115110589F0D801ED91FC910280F38197
:100AE000E02DBE016F5F7F4FC801099597FD04C0DF
:100AF000F80100851185ECCF89810F90DF91CF91AE
:100B00001F910F9108952FB7F89487708093E90093
:100B10009091E800892F807295FF04C09091F200B7
:100B200080E4891B2FBF08957F928F929F92AF928E
:100B3000BF92CF92DF92EF92FF920F931F93CF93CA
:100B4000DF93C82E8B017A0180916402811110C05D
:100B50008FEF9FEFDF91CF911F910F91FF90EF905B
:100B6000DF90CF90BF90AF909F908F907F9008952F
:100B70008091180280FF05C08091E0008260809320
:100B8000E000CE2DDF2DD12C8AEFB82E8C2D877072
:100B9000982E8C2D8072882E8C2D8074782E9AE35E
:100BA000A92E209719F4DD2009F452C08C2D0E9443
:100BB000830581110AC0BA94BB2051F261E070E054
:100BC00080E090E00E940704ECCF8C171D0611F026
:100BD0000CF08C2F9FB7F8949092E9002091E800D8
:100BE00025FD02C09FBFDDCF282F30E0C21BD30BF5
:100BF000882029F08150A0F01092F100FBCFF8017D
:100C0000C7FC0AC0815050F041914093F100FACFE7
:100C100044914093F10031968150D0F7020F131F99
:100C2000DD2021F0A092E800D12CDCCF8091E800FB
:100C300085FD07C0A092E800DD24D394209791F2AF
:100C4000F3CF209779F6772069F2A092E800CACF17
:100C50005D9A84E680931702C7017CCF1F93CF93E0
:100C6000DF9300D000D01F92CDB7DEB790913E0346
:100C700099838A836B831C828091280381112AC007
:100C800011E010931B0310931C0381E293E09093F7
:100C90001E0380931D031092200310921F0385E70B
:100CA00091E09093180380931703109223031092FE
:100CB000220310922503109224031093260310930D
:100CC000270381EC809321030E94DF010E942F0102
:100CD0001093280381E08D8341E050E0BE016B5FFB
:100CE0007F4F80911A030E94940597FD0AC080915E
:100CF0001A0344E050E0BE016F5F7F4F80640E94A2
:100D000094050F900F900F900F900F90DF91CF915F
:100D10001F91089580933E0360E080E00E942E06BC
:100D200010923E0360E080E00C942E06615030F09B
:100D30002091F100FC0120830196F8CF289A84E6E7
:100D4000809363020895CF93DF93EC0180910B01B0
:100D5000882331F083E00E9494051816190634F0B8
:100D600081E090E09B838A8380E090E0DF91CF91E7
:100D70000895CF93DF931F92CDB7DEB76983DC016F
:100D8000ED91FC910280F381E02D41E050E0BE0145
:100D90006F5F7F4F09950F90DF91CF91089583E0AA
:100DA0008093E9008091F200882319F08AE3809310
:100DB000E800089583E00E94830590E00895CF93B2
:100DC000DF931F92CDB7DEB7FC018485958597FD33
:100DD00008C02FEF3FEF358724870F90DF91CF9129
:100DE0000895CE0101960E947701019719F4898137
:100DF00090E0F3CF8FEF9FEFF0CF0F931F930E9400
:100E000039046093C3027093C4028093C502909327
:100E1000C6028BEB92E00E94DF0697FF1DC00E9486
:100E200039040091C3021091C4022091C50230918F
:100E3000C602601B710B820B930B0091BF021091D5
:100E4000C0022091C1023091C2026017710782076F
:100E50009307F8F28FEF9FEF1F910F9108950F9373
:100E60001F93CF93DF931F92CDB7DEB78C01FC01A8
:100E70008485958597FF0BC0CE0101960E9477016E
:100E8000019771F4898190E0F80195878487F801D2
:100E9000848595850F90DF91CF911F910F910895D3
:100EA0008FEF9FEFF1CFFC018485958597FD0BC0F7
:100EB0009FB7F89482E08093E9008091F2009FBF91
:100EC00090E0019608959FB7F89482E08093E9003E
:100ED0008091F2009FBF90E00895089508952091B9
:100EE000EF01260F3327331F21323105ECF4209117
:100EF0009102FC0190E080E0243069F082E00895E6
:100F0000A091EF012191AC0141535E4FA40FB52F89
:100F1000B11D2C930196861798F38091EF01680F0D
:100F20006093EF0180E0089581E0089510929102AE
:100F300081E08093900210926B0261E082E00E9457
:100F4000F30161E083E00E94F301E9EBF0E08081CE
:100F50008E7F808380818D7F808388E48093B8003A
:100F600085E48093BC00089510926A021092690291
:100F7000109298021092BA020E94960785E791E0BB
:100F8000909368028093670286E791E090936602EF
:100F9000809365020895CF93DF9391E09093CE0103
:100FA0008823B9F0C091B800D091BA008091BC00FC
:100FB0008A7B8093BC0060E082E00E94F30160E0E5
:100FC00083E00E94F3010E949607D093BA00C09379
:100FD000B800DF91CF9108958F929F92AF92BF9208
:100FE000CF92DF92EF92FF920F931F93CF93DF93F5
:100FF000D091BA02D13208F0D7C0182FC091B902EF
:101000000E94E2036B017C018091910281116BC00F
:1010100082E080939102109390028FEF80938F0271
:1010200010928E02D0938D02A9E9B2E0EDE6F2E0D3
:1010300080E0D81391C010926C0280916C02CC0FAA
:10104000C82BC0936C0280916B02813009F088C07C
:1010500010926B020E94E2036B017C0180916C0292
:101060008093BB008091930290919402A09195028D
:10107000B0919602892B8A2B8B2BA1F00E94E20360
:101080000091930210919402209195023091960262
:101090006C197D098E099F0906171707280739075C
:1010A00008F442C08091BC0083FDD8CF85EC8093CA
:1010B000BC000E94E2036B017C01809191028230AE
:1010C00009F450C080918F028F3F09F46FC0809166
:1010D0008F02803209F46CC080918F02803309F452
:1010E00069C084E026C08091930290919402A091FF
:1010F0009502B0919602892B8A2B8B2B09F484CF11
:101100000E94E2038090930290909402A090950236
:10111000B09096026C197D098E099F098616970674
:10112000A806B90608F070CF809192020E94CB0702
:1011300085E0109298021092BA0210929702DF9105
:10114000CF911F910F91FF90EF90DF90CF90BF90C4
:10115000AF909F908F9008959D9191938F5F69CFED
:1011600085EEA5CF8091930290919402A091950273
:10117000B0919602892B8A2B8B2B09F49ECF0E946B
:10118000E203009193021091940220919502309114
:1011900096026C197D098E099F0906171707280703
:1011A000390708F08ACFC0CF81E0C3CF80E0C1CF3C
:1011B00082E0BFCF83E0BDCF1F93CF93DF93EA01DF
:1011C000122FDC0111968D919C91DC01ED91FC9127
:1011D0000280F381E02D0995C817D90729F4812FE2
:1011E0000E94EC0791E0811190E0892FDF91CF916F
:1011F0001F910895AF92BF92CF92DF92EF92FF922C
:101200000F931F93CF93DF9300D0CDB7DEB7DC01F0
:10121000211103C01A962C911A97253008F043C06B
:1012200051964D935D936D937C93549790E080E03D
:10123000E22EF12C8E159F05B4F41C962C911C9770
:1012400021110AC0FD01E80FF91F4587452F562FD0
:10125000672F77270196EECFF701E81BF90BEA0F0E
:10126000FB1F4487F3CF6D018DE0C80ED11C18968B
:101270009C91189719968C91199799838A83AD90B0
:10128000BC901197A114B10409F441C01B960C91B4
:1012900010E098012E0D3F1DD50114968D919C9163
:1012A0008217930710F480E016C0F50181819281C6
:1012B000208131E0309397022093B9021092980276
:1012C0001092BA020115110599F421E0A701B601A7
:1012D000C5010E94DC080F900F90DF91CF911F9104
:1012E0000F91FF90EF90DF90CF90BF90AF90089557
:1012F000DC01ED91FC910280F381E02DA801BE019B
:101300006F5F7F4F09950817190769F6DECF1296B0
:10131000ED91FC911397309749F116962D913C91E0
:1013200017971B960C9110E02330310571F48E7FD6
:1013300089839A830F5F1F4F9E012F5F3F4FA70145
:10134000B601CF010E94A703C6CF2115310519F4BC
:101350009F779983F1CF2230310511F49068F9CF4E
:101360002130310549F79F779064F3CF1496ED91C2
:10137000FC911597309709F496CF8085882309F45E
:1013800092CFA680B780A114B10409F48CCF870155
:1013900096011B964C91BE016F5F7F4F81859285B0
:1013A000F501099598CFCF93DF93EC018B818823CA
:1013B000A1F0888191E0909397028093B9021092F6
:1013C00098021092BA0281E00E94EC0791E081112C
:1013D00090E0892FDF91CF9108950E94B40781E0BA
:1013E0008B83CE010E94D309982F8111E2CFF1CFD8
:1013F000E0916A0280916902E81730F4F0E0ED5B59
:10140000FD4F808190E008958FEF9FEF08959091B8
:101410006A02809169022FEF3FEF981748F4E92F95
:10142000F0E0ED5BFD4F208130E09F5F90936A021A
:10143000C90108958091690290916A02891B990BF4
:101440000895CF92DF92EF92FF920F931F93CF9365
:10145000DF937C01CB018A0120919702222389F03E
:10146000EB016B01C40ED51ECC15DD0569F0699149
:10147000D701ED91FC910190F081E02DC701099514
:10148000F3CF642F0E946F07C801DF91CF911F91A6
:101490000F91FF90EF90DF90CF900895CF93DF935F
:1014A0001F92CDB7DEB76983209197022223F9F00E
:1014B0002091BA02203258F021E030E0FC01338361
:1014C000228390E080E00F90DF91CF91089580918A
:1014D0009802E82FF0E0E756FD4F998190838F5FE7
:1014E000809398028093BA0281E090E0ECCF61E0B3
:1014F000CE0101960E946F07F7CF90E080E008953B
:10150000FC0101900020E9F73197AF01481B590B0E
:10151000BC018BEB92E00C94A3068F929F92AF924A
:10152000BF920F931F93CF93DF93CDB7DEB7A197F1
:101530000FB6F894DEBF0FBECDBF19A2423008F43B
:101540004AE08E010F5D1F4F842E912CB12CA12CEF
:10155000A50194010E94C221E62FB901CA01EA3017
:10156000F4F4E05DD801EE938D01232B242B252B81
:1015700079F790E080E0109719F0CD010E94800A81
:10158000A1960FB6F894DEBF0FBECDBFDF91CF910D
:101590001F910F91BF90AF909F908F900895E95C3D
:1015A000E1CFFB01DC018D919C91009761F060819E
:1015B00071816115710539F0448155810E94FB24C8
:1015C00021E0892B09F020E0822F08954F925F924D
:1015D0006F927F928F929F92AF92BF92CF92DF9243
:1015E000EF92FF920F931F93CF936B017C01742EA8
:1015F000AC019B010E940423882399F083E891E0C9
:10160000CF911F910F91FF90EF90DF90CF90BF90FF
:10161000AF909F908F907F906F905F904F900C94C1
:10162000800A46015701E894B7F82FEF3FEF4FE7E4
:101630005FE7C501B4010E94042381110DC02FEFA3
:101640003FEF4FE75FE7C501B4010E944A2018163B
:101650001CF487E891E0D4CF2FEF3FEF4FE75FE432
:10166000C701B6010E94FF2218161CF48BE891E016
:10167000C7CF2FEF3FEF4FE75FECC701B6010E94E6
:101680004A2087FDF3CF20E030E0A901C701B60171
:101690000E944A2010E000E087FF0AC06DE28BEB59
:1016A00092E00E94B9068C01F7FAF094F7F8F094F2
:1016B000C0E060E070E080E09FE37C1641F020E055
:1016C00030E040E251E40E945722CF5FF6CFA701FD
:1016D00096010E94EB212B013C010E94D0224B017C
:1016E0005C014AE00E948D0A7C01E00EF11ECC23D1
:1016F000C1F1C501B4010E944F209B01AC01C3019F
:10170000B2010E94EA214B015C016EE28BEB92E098
:101710000E94B906E80EF91EC15018F120E030E031
:1017200040E251E4C501B4010E94B0202B013C010C
:101730000E94D0224B01B12CA12C4AE0C501B4017A
:101740000E948D0AE80EF91EC501B4010E944F20C7
:101750009B01AC01C301B2010E94EA214B015C0173
:10176000DBCFC701CF911F910F91FF90EF90DF90DA
:10177000CF90BF90AF909F908F907F906F905F9031
:101780004F9008952F923F924F925F926F927F9267
:101790008F929F92AF92BF92CF92DF92EF92FF9281
:1017A0000F931F93CF93DF9300D000D0CDB7DEB758
:1017B000DC014B01042F18969C91189719968C9177
:1017C000199799838A832D903C90119721143104A5
:1017D00009F43AC11B964C9150E0D10114968D91B9
:1017E0009C9184179507C8F4D12C8D2D0F900F90E4
:1017F0000F900F90DF91CF911F910F91FF90EF907D
:10180000DF90CF90BF90AF909F908F907F906F9020
:101810005F904F903F902F900895F101808191E06B
:10182000909397028093B902109298021092BA0294
:1018300020E0BE016F5F7F4FC1010E94DC08D82EFF
:10184000882391F2802F90E09C838B83B12CA12C74
:1018500001E0AB81BC81AA16BB0638F6F101848198
:1018600095817D01EA18FB088E159F0508F47C011F
:10187000D101CC900E94E2032B013C0180919102A6
:10188000811172C01E2D113208F010E200939102F6
:1018900021E08B819C818E199F09A816B90608F456
:1018A00020E020939002BFEFB0938F0210928E023F
:1018B0008FEF810F80938D0200936C0280916C02F8
:1018C000CC0CC82AC0926C0280916B02813009F066
:1018D00092C010926B020E94E2032B013C018091A6
:1018E0006C028093BB008091930290919402A0912E
:1018F0009502B0919602892B8A2B8B2BA1F00E9426
:10190000E20320919302309194024091950250910C
:10191000960264197509860997092617370748073B
:10192000590708F442C08091BC0083FDD8CFE5EC94
:10193000E093BC000E94E2032B013C0180919102E4
:10194000813009F45CC080918E02811710F41091EF
:101950008E02ADE6B2E0E3E4F2E080E0811751F1FF
:101960009D9191938F5FFACF809193029091940211
:10197000A0919502B0919602892B8A2B8B2B09F4AA
:101980007DCF0E94E2032091930230919402409116
:1019900095025091960264197509860997092617D0
:1019A00037074807590708F069CF809192020E94D3
:1019B000CB0710E010926A02109369021E151F04F3
:1019C00009F012CF34016A0C7B1C2301C201861975
:1019D00097098E159F05A8F5D10111968D919C91BF
:1019E000DC01ED91FC910284F385E02D0995F20173
:1019F00081932F01EBCFF5EEF093BC009BCF80914C
:101A0000930290919402A0919502B0919602892B35
:101A10008A2B8B2B09F492CF0E94E2032091930230
:101A20003091940240919502509196026419750983
:101A300086099709261737074807590708F07ECF08
:101A4000B4CFAE0CBF1C05CF1296ED91FC9113974D
:101A5000309749F116962D913C91179710E01B96FF
:101A60004C9150E02330310571F4816089839A8371
:101A70004F5F5F4F9401BE016F5F7F4FCF010E94A8
:101A80006B03D82EB2CE2115310519F490689983D5
:101A9000F1CF2230310511F49F77F9CF2130310594
:101AA00049F7906CF4CF1496ED91FC91159730970F
:101AB00009F49ACE8085882309F496CEE480F580D7
:101AC000E114F10409F490CE10E09B011B964C91B7
:101AD000BE016F5F7F4F81859285F7010995D1CF58
:101AE000CF93DF93EC01BC01635F7F4F4A850E9477
:101AF000C20B882301F14A8550E030E020E060E02D
:101B000070E0CB0124173507CCF4982F872F762F60
:101B10006627EC85E1110AC0FA01E21BF30BEC0F1A
:101B2000FD1FE4856E2B2F5F3F4FECCFFE01E20FD0
:101B3000F31FE585F7CF6FEF7FEFCB01DF91CF91FB
:101B400008958F929F92AF92BF92CF92DF92EF92C1
:101B5000FF920F931F93CF93DF93EC014A015B0138
:101B6000888199810E94700D2A8101E010E002C0F5
:101B7000000F111F2A95E2F701501109012E000CE8
:101B8000220B330BAB81680179010A2E04C0CC0C07
:101B9000DD1CEE1CFF1C0A94D2F7C094D094E09494
:101BA000F094C622D722E822F922E881F981B9010E
:101BB000A801482159216A217B2104C0440F551FE7
:101BC000661F771FAA95D2F74C295D296E297F29B8
:101BD0002285CF01DF91CF911F910F91FF90EF9060
:101BE000DF90CF90BF90AF909F908F900C94FA08A9
:101BF0000F931F93CF93DF93EC01888199810E940B
:101C0000700DAB01BC012A8181E090E002C0880F19
:101C1000991F2A95E2F70197092E000CAA0BBB0B1E
:101C20002B8104C076956795579547952A95D2F7ED
:101C30008C019D010423152326233723C901B801F4
:101C4000DF91CF911F910F910895AF92BF92CF92E4
:101C5000DF92EF92FF920F931F93CF93DF93CDB755
:101C6000DEB7EC970FB6F894DEBF0FBECDBF8C0188
:101C7000FC01868D978D1FA218A619A61AA69F8B08
:101C80008E8B198E188EFF24F394F9A28BE390E0CB
:101C90009F8F8E8F1AA28EE088A34EE0BE01655DF5
:101CA0007F4FCE0146960E94C20B8BA59CA598271C
:101CB00089279827F80195A784A78DA59EA5982721
:101CC0008927982797A786A78FA598A99827892756
:101CD000982791AB80AB69A97AA9762767277627E1
:101CE00073AB62AB8BA99CA998278927982795ABE2
:101CF00084AB8DA99EA998278927982797AB86AB97
:101D00008FA998AD98278927982791AF80AF072E84
:101D1000000C880B990B0E94512020E030E04AEA29
:101D200053E40E94572228EB3EE142E152E40E9434
:101D3000EB21F8016283738384839583868D978D6D
:101D40001A8A1B8A1C8A1D8A9A8389831C821B8299
:101D5000FC868CE190E09A8789871D86FB86CE0100
:101D600001965C019AAF89AF82E08BAF83E08CAFC4
:101D7000CE01C9960E94F80DC12CD12CE12CE5E4CE
:101D8000FE2E63307105E1F06230710599F061302B
:101D9000710509F4D6C0C12CD12CF0E8EF2EFFE379
:101DA000FF2E672B69F4C12CD12C50E8E52E56E4A8
:101DB000F52E06C0C12CD12C70E8E72E75E4F72E65
:101DC000F80164A575A5072E000C880B990B0E94DD
:101DD0005120A70196010E945722F801668377835C
:101DE0008087918766A577A5072E000C880B990B35
:101DF0000E945120A70196010E945722F801628794
:101E000073878487958760A971A9072E000C880BBA
:101E1000990B0E945120A70196010E945722F801B8
:101E200066877787808B918B868D978D1A8A1B8A20
:101E30001C8A1D8A9A8389831C821B8281E08C877D
:101E40002BE130E03A8729871D868B87BAAEA9AE91
:101E500082E08BAF83E08CAFCE01C9960E94F80D73
:101E6000C12CD12C33E0E32E33E4F32E6115710540
:101E700019F1C12CD12C23E8E22E22E4F22E61309C
:101E80007105D1F093E3C92EDC2C93E0E92E92E4A6
:101E9000F92E6230710581F0C12CD12C40E8E42E7E
:101EA0004FE3F42E6330710539F483E3C82EDC2C44
:101EB00083E8E82E81E4F82EF80164A975A9072EBD
:101EC000000C880B990B0E945120A70196010E94DB
:101ED0005722F801628B738B848B958B66A977A947
:101EE000072E000C880B990B0E945120A701960128
:101EF0000E945722F801668B778B808F918F60AD9F
:101F000071AD072E000C880B990B0E945120A70180
:101F100096010E945722F801628F738F848F958FEC
:101F2000EC960FB6F894DEBF0FBECDBFDF91CF9118
:101F30001F910F91FF90EF90DF90CF90BF90AF90E7
:101F40000895C12CD12CE12C66E4F62E39CF0F93E5
:101F50001F93CF93DF938C01EB01DC0114968D91DD
:101F60009C910E94250EF801048115810E9439047C
:101F7000AB01BC01FE01349680E2DF011D928A951F
:101F8000E9F784E290E0A0E0B0E088839983AA8337
:101F9000BB83F80182A593A5B0E0A0E08C839D836C
:101FA000AE83BF838DE090E0A0E0B0E088879987A2
:101FB000AA87BB87488B598B6A8B7B8B82819381E5
:101FC000A481B5818C8B9D8BAE8BBF8B81E0DF9123
:101FD000CF911F910F9108958F929F92AF92BF92D0
:101FE000CF92DF92EF92FF920F931F93CF93DF93E5
:101FF0008C01EB01DC0114968D919C910E94250EC1
:10200000F801048115810E943904FE01349620E212
:10201000DF011D922A95E9F7C12CD12C7601C394DA
:10202000C882D982EA82FB82F80126A137A1490140
:10203000B12CA12C8C829D82AE82BF82C886D986AB
:10204000EA86FB86688B798B8A8B9B8B2AE038EE3D
:102050004CE151E466817781808591850E94B020B2
:102060006C8B7D8B8E8B9F8B2AE038EE4CE151E49C
:10207000D8011A966D917D918D919C911D970E942A
:10208000B020688F798F8A8F9B8F2AE038EE4CE1E1
:1020900051E4F80166857785808991890E94B02096
:1020A0006C8F7D8F8E8F9F8F81E0DF91CF911F91FD
:1020B0000F91FF90EF90DF90CF90BF90AF909F90E7
:1020C0008F9008950F931F93CF93DF938C01EB01B3
:1020D000DC0114968D919C910E94250EF8010481DB
:1020E00015810E943904AB01BC01FE01349680E2E7
:1020F000DF011D928A95E9F781E090E0A0E0B0E071
:1021000088839983AA83BB83F80180A591A5B0E059
:10211000A0E08C839D83AE83BF8384E090E0A0E049
:10212000B0E088879987AA87BB87488B598B6A8BD1
:102130007B8B25E33AEF4EE85CE3628973898489FF
:1021400095890E94B0206C8B7D8B8E8B9F8B25E3B5
:102150003AEF4EE85CE3D80156966D917D918D91F2
:102160009C9159970E94B020688F798F8A8F9B8F9E
:1021700025E33AEF4EE85CE3F801628D738D848DC0
:10218000958D0E94B0206C8F7D8F8E8F9F8F81E008
:10219000DF91CF911F910F910895CF93DF93EC01C1
:1021A00088819981009711F00E94A52319821882D5
:1021B0001D821C821B821A82DF91CF910895FC013F
:1021C00080819181009711F00C94A52308950C94BF
:1021D000A5230C94A5230C94A5239F92AF92BF92A4
:1021E000CF92DF92EF92FF920F931F93CF93DF93E3
:1021F000CDB7DEB7AE970FB6F894DEBF0FBECDBF3A
:102200008C01DC0197965C934E939697CA010196D8
:1022100099969C938E9398974E5F5F4F9B965C9395
:102220004E939A975E962D913C911FA218A619A6DF
:102230001AA63F8B2E8B198E188E81E089A34BE650
:1022400050E05F8F4E8F1AA288A31A8A1B8A1C8ABD
:102250001D8A3A8329831C821B828C8728E630E002
:102260003A8729871D868B875E01B6E1AB0EB11CCC
:10227000BCA6ABA68DA787E08EA741E050E060E04A
:1022800070E0CE018B960E94A10DCE018B960E942C
:10229000F80D613071058105910539F461E070E058
:1022A00080E090E00E940704F0CF64E670E080E0F8
:1022B00090E00E94070420E047E050E060E070E01A
:1022C000FE0131966F01CF010E94FA0864E670E0CA
:1022D00080E090E00E940704D8015E968D919C9169
:1022E0001A8A1B8A1C8A1D8A9A8389831C821B82F4
:1022F000FF24F394FC8689E190E09A8789871D8604
:10230000FB8620E040E050E0BA01C6010E94FA08D6
:10231000F801868D978D1A8A1B8A1C8A1D8A9A83DA
:1023200089831C821B82FC868AE190E09A878987D8
:102330001D86FB86DF8ACE8A83E0E82EE88E198E22
:1023400040E050E0BA01C5010E94A10DD8015E969F
:102350008D919C911A8A1B8A1C8A1D8A9A83898373
:102360001C821B82FC868BE190E09A8789871D8600
:10237000FB86DF8ACE8A92E0992E988EE98E41E024
:1023800050E060E070E0C5010E94A10DF801868D6B
:10239000978D1A8A1B8A1C8A1D8A9A8389831C82BC
:1023A0001B82FC868CE190E09A8789871D86FB86DC
:1023B000DF8ACE8A988EE98E40E050E0BA01C501EE
:1023C0000E94A10DD8015E968D919C911A8A1B8A5C
:1023D0001C8A1D8A9A8389831C821B82FC868BE659
:1023E00090E09A8789871D86FB8620E041E050E0D7
:1023F00060E070E0C6010E94FA0864E670E080E0E8
:1024000090E00E940704F80180A191A1009739F0A3
:10241000DC01ED91FC910280F381E02D0995F8013A
:1024200082A193A1009739F0DC01ED91FC9102802B
:10243000F381E02D0995F80184A195A1009739F069
:10244000DC01ED91FC910280F381E02D099586E09D
:1024500090E00E940923FC0183E491E09183808352
:1024600080E596E09383828315830483D801919657
:10247000FC93EE93909786E090E00E940923FC0184
:1024800085E391E09183808381E596E09383828365
:1024900015830483D8019396FC93EE93929786E07C
:1024A00090E00E940923FC0187E291E09183808300
:1024B00082E596E09383828315830483D801959601
:1024C000FC93EE93949781E0AE960FB6F894DEBF3E
:1024D0000FBECDBFDF91CF911F910F91FF90EF9075
:1024E000DF90CF90BF90AF909F9008950F931F9370
:1024F000CF93DF93EC0188819981009759F02A816D
:102500003B812617370730F081E0DF91CF911F9193
:102510000F9108958B016F5F7F4F0E942E240097CB
:1025200059F0998388831B830A832C813D81232B57
:1025300059F7FC011082E8CF80E0E7CFEF92FF92DD
:102540000F931F93CF93DF938C017B01EB010990D5
:102550000020E9F72197C61BD70BBE010E94761217
:10256000811109C0C801DF91CF911F910F91FF9098
:10257000EF900C94CD10F801D583C483B70180810E
:102580009181DF91CF911F910F91FF90EF900C946B
:10259000F4249F92AF92BF92CF92DF92EF92FF927C
:1025A0000F931F93CF93DF93EC016B015A0185E0EA
:1025B000E82EF12C4530510520F47A0195E0A92E42
:1025C000B12C198218821B821A821D821C8269EB2F
:1025D00071E0CE010E949E12D60114960D911C91BD
:1025E000E016F10658F5A016B10608F48501D601EB
:1025F000ED91FC911197E00FF11F908010828D9169
:102600009C91E80EF91EE114F10471F0F7010190BC
:102610000020E9F731975F01AE18BF08B501CE0180
:102620000E947612811117C0CE010E94CD10F601D2
:1026300080819181080F191FD8019C92CE01DF91F2
:10264000CF911F910F91FF90EF90DF90CF90BF90AF
:10265000AF909F900895BD82AC82B7018881998127
:102660000E94F424E4CF0F931F93CF93DF938C0148
:10267000EB0188E2FB0111928A95E9F74BE050E00B
:102680006FE871E0CE010E9409251B8681E090E091
:10269000A0E0B0E08C879D87AE87BF87F80182817C
:1026A0009381092E000CAA0BBB0B888B998BAA8BEC
:1026B000BB8B8DE090E0A0E0B0E08C8B9D8BAE8B6F
:1026C000BF8B1CA21DA21EA21FA280E090E0A0E270
:1026D000B2EC8C8F9D8FAE8FBF8F80E090E0A2ED2B
:1026E000B2E4888F998FAA8FBB8F84E09DEAA0E423
:1026F000BBE388A399A3AAA3BBA3DF91CF911F91AA
:102700000F9108950F931F93CF93DF938C01EB01EB
:1027100088E2FB0111928A95E9F74BE050E069E904
:1027200071E0CE010E9409251B8641E050E060E087
:1027300070E04C875D876E877F87F8018281938187
:10274000092E000CAA0BBB0B888B998BAA8BBB8B19
:102750004C8B5D8B6E8B7F8B1CA21DA21EA21FA2B9
:102760008AE098EEACE1B3EC8C8F9D8FAE8FBF8F7B
:102770008AE098EEACE1B3E4888F998FAA8FBB8F83
:1027800083E29BEDA9E7BDE388A399A3AAA3BBA31A
:10279000DF91CF911F910F9108950F931F93CF93C6
:1027A000DF938C01EB0188E2FB0111928A95E9F736
:1027B0004BE050E063EA71E0CE010E9409251B86E0
:1027C00081E090E0A0E0B0E08C879D87AE87BF8776
:1027D000F80182819381092E000CAA0BBB0B888B18
:1027E000998BAA8BBB8B84E090E0A0E0B0E08C8B4F
:1027F0009D8BAE8BBF8B1CA21DA21EA21FA287EDBC
:1028000093EAABE0B2EC8C8F9D8FAE8FBF8F87EDDC
:1028100093EAABE0B2E4888F998FAA8FBB8F8AE9E5
:102820009BEAABE0B9E388A399A3AAA3BBA3DF917A
:10283000CF911F910F91089585ED8093BC008091F9
:10284000930290919402A0919502B09196020796FE
:10285000A11DB11D23E0B695A795979587952A955B
:10286000D1F72091BC0024FD03C01092910208957D
:10287000409193025091940260919502709196025A
:10288000452B462B472B69F30097A105B10541F075
:102890002AE22A95F1F700C00197A109B109E1CF19
:1028A000809192020C94CB071F920F920FB60F9259
:1028B00011242F933F938F939F93AF93BF93809156
:1028C0002F0290913002A0913102B09132023091EA
:1028D0002E0223E0230F2D3758F50196A11DB11DBF
:1028E00020932E0280932F0290933002A093310206
:1028F000B09332028091330290913402A09135025C
:10290000B09136020196A11DB11D809333029093C0
:102910003402A0933502B0933602BF91AF919F91DC
:102920008F913F912F910F900FBE0F901F90189590
:1029300026E8230F0296A11DB11DD2CF1F920F9240
:102940000FB60F9211248F939F938091E100909185
:10295000E100937F9093E10083FF0FC01092E900A4
:1029600091E09093EB001092EC0092E39093ED00D5
:102970001092640298E09093F00082FF22C093E0EE
:102980009093E9009091F200992319F09AE39093C3
:10299000E80090911702992341F09091170291500D
:1029A00090931702911101C05D9890916302992351
:1029B00041F090916302915090936302911101C094
:1029C000289884FF18C08091E2008E7E81608093F9
:1029D000E2008091E1008F7E8093E10080911802F7
:1029E0008E7E8061809318029F918F910F900FBE11
:1029F0000F901F90189580FFF7CF8091E2008E7E98
:102A000080618093E2008091E1008E7E8093E100FE
:102A1000809118028E7E8160E5CF1F920F920FB6D3
:102A20000F921124CF92DF92EF92FF920F931F9398
:102A30002F933F934F935F936F937F938F939F93C6
:102A4000AF93BF93EF93FF93CF93DF93CDB7DEB7F1
:102A50006C97DEBFCDBF1092E9008091E80083FF44
:102A600025C068E0CE0145960E94960682EF8093CD
:102A7000E8008D8987FF39C09091E80090FFFCCF76
:102A8000982F907609F034C19E894F89588D2F89EF
:102A9000F88C911131C0803861F5809119028093D2
:102AA000F1001092F1008EEF8093E8006C960FB663
:102AB000F894DEBF0FBECDBFDF91CF91FF91EF91B4
:102AC000BF91AF919F918F917F916F915F914F9146
:102AD0003F912F911F910F91FF90EF90DF90CF903A
:102AE0000F900FBE0F901F9018959EEF9093E800E7
:102AF000C7CF1092F100D5CF913059F48111D3CFC7
:102B00004130510581F6809119028D7F8093190221
:102B1000CACF933049F48111C6CF4130510519F61F
:102B2000809119028260F2CF953041F48091E800E3
:102B300080FFFCCF20682093E300B5CF963009F0EA
:102B4000A9C00B8D1C8D22E01092E9001092150295
:102B500010921402F2122EC010921302109212025E
:102B60000E9452051F8299E09983FA8291E09E8328
:102B700090EA98879AEF9987209114023091150274
:102B8000275F3F4F3C832B838D831092E900109287
:102B9000150210921402109313020093120249E0DE
:102BA00050E0BE016F5F7F4F80E00E94A6040E944C
:102BB000520579CF10931302009312020E94DF0195
:102BC000DC0112960D911C910115110509F451C1FA
:102BD000D801ED91FC910480F581E02DBE016B5E82
:102BE0007F4FC8010995009709F03EC1F8010085A3
:102BF0001185EACFF3E0FF120EC08F89882309F414
:102C000040C0823061F440E86DE08BE491E00E94C6
:102C10007304811148CF81E28093EB0047CF81306C
:102C200029F440E86BE08FE391E0F1CF833099F72E
:102C30000E94DF01DC011296ED90FC908E010F5F87
:102C40001F4F6801E114F10479F0D701ED91FC9177
:102C50000680F781E02DB801C7010995080F111D05
:102C6000F701E084F184EECFD8011C92F6010190C7
:102C70000020E9F73197BF016C197D0940E0C601DA
:102C8000C6CF69E271E0FB01449150E080E80E9408
:102C9000A60409CF973009F4BECF983021F481E023
:102CA0008093F10000CF993009F0FDCE837009F0D8
:102CB000B2CFE7E1F1E081E031E096E32191222318
:102CC00071F08093E9003093EB00DF0111972C91B4
:102CD0002093EC009093ED008F5F873079F78EE7BB
:102CE0008093EA001092EA008F8980936402DBCE21
:102CF0008B8D9C8D1092E900109215021092140297
:102D00009093130280931202898D811192C08E8953
:102D10009D89913A49F4813209F07DCF47E050E036
:102D200064E071E080E0B3CF913209F074CF833278
:102D300069F48F89988DB0E0A0E0809300019093B2
:102D40000101A0930201B0930301ADCE803269F47A
:102D50008091E80082FFFCCF67E084E091E00E9470
:102D600096068BEF8093E8009ECE823209F09BCED0
:102D70008F8980930B01EEEFFFE7859194918B3F54
:102D80009C4D51F1E0E0F8E0809104019091050143
:102D9000A0910601B0910701803B9440A105B105C7
:102DA000F1F480910B0180FD1AC0EE3F8AE0F80734
:102DB00089F587E797E7918380838091600080930E
:102DC000160288E19BE00FB6F894A8958093600006
:102DD0000FBE9093600067CEEEEFFAE0D5CF808112
:102DE00091818737974709F05ECEA8958091600062
:102DF0008861809360008091160280936000EE3FAE
:102E00002AE0F20789F08091FE0A9091FF0A9183EF
:102E1000808349CE808191818737980751F29093C2
:102E2000FF0A8093FE0AC5CF1092FF0A1092FE0A95
:102E30003ACE0E94DF01DC0112960D911C91011522
:102E4000110509F4E8CED801ED91FC910190F081D3
:102E5000E02DBE016B5E7F4FC8010995811123CE25
:102E6000F80100851185EBCF181619060CF41BCE5E
:102E7000D2CEF1E0FF12BECE6DE271E004CF1F9220
:102E80000F920FB60F9211242F933F934F935F939E
:102E90006F937F938F939F93AF93BF93EF93FF9322
:102EA0008091B900887F803609F44AC0F0F58832F5
:102EB00009F4A7C018F5803109F49BC0B8F4882341
:102EC00009F4F9C0883009F494C0FF91EF91BF91E3
:102ED000AF919F918F917F916F915F914F913F91B2
:102EE0002F910F900FBE0F901F901895883109F405
:102EF00088C0803251F780938F0214C0803409F467
:102F00009DC040F48033B9F38833F9F680938F0283
:102F100085ECB0C0803509F485C0883509F496C0C9
:102F2000883499F60E941C14D0CF883909F48CC0DB
:102F300038F5883729F050F4883611F0803729F6B3
:102F400083E0809391021092110257C0883809F4EF
:102F50007BC0803919F0803809F0B7CF8091110219
:102F6000803208F071C0E091110281E08E0F8093F1
:102F700011028091BB00F0E0EF50FE4F80833DC016
:102F8000803B39F0E0F4803A09F479C0883A09F0DE
:102F90009CCF84E0809391021092F0011092EF0197
:102FA000E0916702F091680209958091EF0181112B
:102FB0000FC081E08093EF011092CF0109C0803CE7
:102FC00009F4A6CF883C09F4A3CF883B09F07DCF54
:102FD000E091F00181E08E0F8093F001F0E0E15389
:102FE000FE4F80818093BB009091F0018091EF01B2
:102FF00029C080916C028093BB0085EC8093BC005B
:1030000064CF90918E0280918D02981758F5E091CF
:103010008E0281E08E0F80938E02F0E0E359FD4F27
:103020008081E9CFE0918E0281E08E0F80938E0245
:103030008091BB00F0E0E359FD4F808390918E02B8
:1030400080918D029817C8F285E8D8CFE0918E0262
:1030500081E08E0F80938E028091BB00F0E0E359F7
:10306000FD4F80838091900281115CCF81E080933D
:103070006B0284EA8093BC001092910226CF85EC0B
:103080008093BC001092910280911102803230F442
:10309000E0911102F0E0EF50FE4F108260911102BA
:1030A00070E0E0916502F091660281EF91E0099590
:1030B000109211020ACF10928F0234CF0895CF934D
:1030C0001092BE021092BD0288EE93E0A0E0B0E044
:1030D0008093BF029093C002A093C102B093C2023A
:1030E00021E531E03093BC022093BB022FEF3FEF8C
:1030F0003093C8022093C70210920E0310920D0362
:1031000080930F0390931003A0931103B0931203C5
:1031100083E691E090930C0380930B0310923E039F
:1031200080913603811113C0109231031092300345
:1031300080ED91E0909333038093320386E390E037
:10314000909335038093340381E08093360380911C
:10315000280381112AC0C1E0C0931B03C0931C0344
:1031600081E293E090931E0380931D03109220034D
:1031700010921F0385E791E0909318038093170343
:10318000109223031092220310922503109224031D
:10319000C0932603C093270381EC809321030E94F0
:1031A000DF010E942F01C0932803E0912203F091D8
:1031B0002303309769F580E393E090932303809392
:1031C00022038091240390912503209134033091B0
:1031D0003503820F931F909325038093240381E886
:1031E00091E09093400380933F0310925E0310920E
:1031F0005D031092600310925F03109262031092BD
:1032000061031092640310926303CF910895FC014F
:10321000808191810097D9F780E393E09183808347
:10322000D0CFCF93DF93CDB7DEB7C857D1090FB654
:10323000F894DEBF0FBECDBF789484B5826084BDA4
:1032400084B5816084BD85B5826085BD85B58160AA
:1032500085BD80916E00816080936E001092810028
:1032600080918100826080938100809181008160E3
:1032700080938100809180008160809380008091A4
:103280009100826080939100809191008160809391
:103290009100809190008160809390008091C100A6
:1032A00084608093C1008091C10082608093C100DE
:1032B0008091C10081608093C1008091C3008160D2
:1032C0008093C3008091C00082608093C000809191
:1032D000C20081608093C20080917A0084608093F4
:1032E0007A0080917A00826080937A0080917A00DF
:1032F000816080937A0080917A00806880937A0060
:103300001092640210921902109218028091D70054
:1033100081608093D70080EA8093D80089B580616E
:1033200089BD89B5826089BD09B400FEFDCF61E029
:1033300070E080E090E00E9407048091D8008F7CCC
:1033400080618093D8008091E000807F8093E000CE
:103350008091E1008E7E8093E1008DE08093E20019
:10336000559A209A5D9828988FEF9FEF9093C80206
:103370008093C7020E94B40780915D0390915E0321
:10338000009711F00E94A52386E090E00E94092397
:10339000FC0188E680838BE093E092838183138233
:1033A00080E290E095838483F0935E03E0935D0375
:1033B00005E011E0E0905D03F0905E030E94B40729
:1033C000D70113961C93C7010E94D3098111E7C34B
:1033D0006AE070E080E090E00E940704015051F73D
:1033E0006AE070E080E090E00E940704F9CFADA0B1
:1033F000BEA0A114B10439F0E9A4FAA46501E11456
:10340000F10409F021C31A8219821C821B821E82D8
:103410001D8261EB71E0C8010E949E1229A53AA5A8
:103420008D819E81F12C2817390730F0B801CE012B
:1034300085960E94D10AF82EC8010E94DF10FF2055
:1034400059F149A55AA5BE016B5D7F4FC8010E9485
:10345000C91289819A81C12CD12C7601009721F063
:103460000E94991E6B017C01C0920E01D0920F0147
:10347000E0921001F0921101C8010E94DF108DEA64
:1034800091E00E94800A42E0C701B6010E94E60A6C
:1034900087EB91E00E94800A1A8219821C821B82AB
:1034A0001E821D826EEB71E0C8010E949E1229A54A
:1034B0003AA58D819E81F12C2817390730F0B8018B
:1034C000CE0185960E94D10AF82EC8010E94DF1015
:1034D000FF2059F149A55AA5BE016B5D7F4FC80178
:1034E0000E94C91289819A81C12CD12C7601009742
:1034F00021F00E94991E6B017C01C0921201D092B2
:103500001301E0921401F0921501C8010E94DF102E
:103510008AEB91E00E94800A42E0C701B6010E9456
:10352000E60A87EB91E00E94800A1A8219821C82C7
:103530001B821E821D8268EC71E0C8010E949E12EF
:1035400029A53AA58D819E81F12C2817390730F0E5
:10355000B801CE0185960E94D10AF82EC8010E94BA
:10356000DF10FF20C9F149A55AA5BE016B5D7F4F51
:10357000C8010E94C91289819A81C12CD12C76017F
:10358000009719F00E949D1E6B01D0920D01C09210
:103590000C01C8010E94DF1084EC91E00E94800AB7
:1035A0000D2C000CEE08FF084AE0C701B601F7FE3B
:1035B0000DC06DE28BEB92E00E94B906662777277B
:1035C000CB016C197D098E099F094AE00E948D0A82
:1035D00087EB91E00E94800ACE0185960E94DF1061
:1035E0000E9439046B017C018FE393E00E94250E59
:1035F00028E1B22EAF96AEADBFADAF97EB2D1D92C9
:10360000EA95E9F724E230E040E050E029833A838C
:103610004B835C838091690390916A03B0E0A0E0E2
:103620008D839E83AF83B8878DE090E0A0E0B0E00B
:1036300089879A87AB87BC87C98ADA8AEB8AFC8A32
:103640008091410390914203A0914303B0914403C0
:103650008D8B9E8BAF8BB88FE596AEADBFADE597EA
:10366000EB2D1D92EA95E9F721E030E040E050E0D3
:103670002D962CAF3DAF4EAF5FAF2D978091650378
:1036800090916603B0E0A0E061968CAF9DAFAEAFC5
:10369000BFAF619765962CAF3DAF4EAF5FAF6597FB
:1036A0006D96CCAEDDAEEEAEFFAE6D972AE038EE95
:1036B0004CE151E4609145037091460380914703CA
:1036C000909148030E94B020A1966CAF7DAF8EAF61
:1036D0009FAFA1972AE038EE4CE151E46091490395
:1036E00070914A0380914B0390914C030E94B0204B
:1036F000A5966CAF7DAF8EAF9FAFA5972AE038EE51
:103700004CE151E460914D0370914E0380914F0361
:10371000909150030E94B020A9966CAF7DAF8EAF00
:103720009FAFA997D1011D92BA94E9F721E030E04B
:1037300040E050E02DA33EA34FA358A7809167031C
:1037400090916803B0E0A0E089A79AA7ABA7BCA7B7
:1037500084E090E0A0E0B0E08DA79EA7AFA7B8AB53
:10376000CDAADEAAEFAAF8AE25E33AEF4EE85CE375
:1037700060915103709152038091530390915403CF
:103780000E94B02069AF7AAF8BAF9CAF25E33AEFD0
:103790004EE85CE3609155037091560380915703A6
:1037A000909158030E94B0206B017C012196CCAE11
:1037B000DDAEEEAEFFAE219725E33AEF4EE85CE3D7
:1037C0006091590370915A0380915B0390915C035F
:1037D0000E94B0202B013C0125964CAE5DAE6EAE32
:1037E0007FAE259720E030E0A9010E94FF22181645
:1037F0000CF462C1C301B20190582DEC3CEC4CE4D6
:103800005DE30E944A2087FF03C0412C512C320106
:1038100020E030E0A901C701B6010E94FF2218167E
:103820000CF44DC1C701B60190582DEC3CEC4CE4B2
:103830005DE30E944A2087FF03C0C12CD12C760192
:103840002091120130911301409114015091150102
:10385000E3962CAF3DAF4EAF5FAFE39760E070E013
:1038600080E89FE30E94EA214B015C0120912A023B
:1038700030912B0240912C0250912D020E94B020D9
:10388000E9966CAF7DAF8EAF9FAFE997A301920130
:10389000E3966CAD7DAD8EAD9FADE3970E94B020F9
:1038A0009B01AC01E9966CAD7DAD8EAD9FADE99706
:1038B0000E94EB212B013C0140922A0250922B02E4
:1038C00060922C0270922D022091260230912702E4
:1038D0004091280250912902C501B4010E94B020F4
:1038E0004B015C01A7019601E3966CAD7DAD8EADF9
:1038F0009FADE3970E94B0209B01AC01C501B401CC
:103900000E94EB2160932602709327028093280285
:1039100090932902C0900E01D0900F01E090100109
:10392000F0901101A70196010E94B02020E030E044
:1039300040E251E40E94B0200E94C922B62EA701A5
:103940009601C301B2010E94B02020E030E040E2C5
:1039500051E40E94B0200E94C922862F6B2D8195D0
:103960000E942E06E9E5F1E0E49190917B008E2F14
:10397000880F880F80729F7D892B80937B00E77072
:10398000E064E0937C0080917A00806480937A0008
:1039900080917A0086FDFCCFE0907800F09079006D
:1039A000C0900C01D0900D010E9439044B015C01C4
:1039B00080912502CE14DF040CF084C08111AFC0C9
:1039C00081E0809325028092210290922202A092AF
:1039D0002302B092240210922002809125028111CC
:1039E00024C080911E0290911F0218161906ECF453
:1039F00040911A0250911B0260911C0270911D02AD
:103A0000841A950AA60AB70AA1E98A16A1E09A06BD
:103A1000A104B10450F0019709F0BFC081E00E94F9
:103A20008A0610921F0210921E026AE070E080E087
:103A300090E00E94070480E090E0892B09F40DC11A
:103A40000E94000006C1640146015FEF851A950AD5
:103A5000D6018C91082E000C990B0E942920892BED
:103A600091F7B1E0EB1AF108EA0CFB1CF701808139
:103A7000082E000C990B0E942920892B39F0EC1498
:103A8000FD0420F0F1E0EF1AF108F0CFA7014F5F3D
:103A90005F4F4C195D095AA749A7AC14BD0420F427
:103AA000B601C5010E94EB24EDA1FEA189A59AA54E
:103AB000E80FF91F1082A7CCC301B2019ECEC70147
:103AC000B601B3CE882309F48CCF109225028091E1
:103AD000210290912202A0912302B0912402A5011B
:103AE0009401281B390B4A0B5B0BDA01C901803B9F
:103AF0009440A105B10508F074CF80911E02909109
:103B00001F02019690931F0280931E0280921A0258
:103B100090921B02A0921C02B0921D025ECF809177
:103B2000210290912202A0912302B0912402A501CA
:103B30009401281B390B4A0B5B0BDA01C901803B4E
:103B40009440A105B10508F470CF80912002811145
:103B50006CCF92E3E92EF12C6CE98CE90E942E06E1
:103B600041E0E41AF108C1F762E370E080E090E020
:103B70000E9407048FE0E82EF12C62E384E60E94A5
:103B80002E0651E0E51AF108C1F781E0809320028A
:103B900010921F0210921E0220CF82E040CF80912F
:103BA0005D0390915E031A8A1B8A1C8A1D8A9A8380
:103BB00089831C821B821C8785E790E09A8789870E
:103BC0001D861B87FE0131967F01CF010E94700D7B
:103BD000683671058105910509F002CC40E050E09E
:103BE000BA018FE393E00E94ED10882309F4F8CB2B
:103BF00080915D0390915E031A8A1B8A1C8A1D8A3C
:103C00009A8389831C821B821C878AE190E09A87B1
:103C100089871D861B87FEA2EDA283E08FA318A6CD
:103C200044E050E060E070E0CE0185960E94A10D76
:103C30008701FE013D96AF96FFAFEEAFAF9729E447
:103C400030E02C0F3D1F245F3F4FE5963FAF2EAF76
:103C5000E5971E0131E3230E311C8BEB92E00E94AD
:103C60005307181619060CF0BBCC1EA21DA218A6ED
:103C70001FA21AA619A669EB71E0CE0185960E94D3
:103C80009E120E94FD0697FDB2CB8A30910509F481
:103C9000AECB89831A82E9A4FAA44FEFE41AF40A9E
:103CA000B701CE0185960E947612882351F32DA18B
:103CB0003EA189A59AA5B801820F931F0E94F42402
:103CC000FAA6E9A6DECF81E891E0909340038093C5
:103CD0003F0380915F0390916003009739F0DC010E
:103CE000ED91FC910280F381E02D099580916103B3
:103CF00090916203009739F0DC01ED91FC91028014
:103D0000F381E02D099580916303909164030097FE
:103D100039F0DC01ED91FC910280F381E02D0995F1
:103D200080915D0390915E03009711F00C94A523A0
:103D30000895662777270C94D91E1F93FC019927B5
:103D40008827BC01E89411911032E9F3193010F082
:103D50001E30C8F31B3251F01D3249F4689406C07E
:103D60000E94C41E610F711D811D911D1191105380
:103D70001A30B0F33EF490958095709561957F4F21
:103D80008F4F9F4F1F910895592F482F372F262F60
:103D9000660F771F881F991F660F771F881F991F4F
:103DA000620F731F841F951F660F771F881F991F4F
:103DB0000895B0E0A0E0EFEDFEE10C9482215C01FB
:103DC0007B016115710519F0DB018D939C938501D1
:103DD0000F5F1F4FF501D0818D2F90E00E942920A9
:103DE0006C01892BB9F5DD32B9F50F5F1F4FD50195
:103DF0001196DC91C1E05801F1E0AF1AB10843E03F
:103E000050E064EB70E0C5010E943220892B69F517
:103E1000680182E0C80ED11C45E050E06FEA70E016
:103E2000C6010E943220892B21F4680197E0C90E57
:103E3000D11CE114F10419F0D701CD92DC9260E0BD
:103E400070E080E89FEFC111FFC060E070E080E8A3
:103E50009FE7FAC05801BBCFDB3229F485010E5F22
:103E60001F4FF501D181C0E0C6CF43E050E06CEABE
:103E700070E0C5010E943220892BE9F0F80110E0C2
:103E800000E020E030E0A9015F01B0ED8B2E8D0E47
:103E900089E08815C8F19C2E689491F88C2F887061
:103EA000C2FF16C0811102C00F5F1F4F3196D501AE
:103EB000DC91C92DE9CFE114F10429F00E5F1F4F09
:103EC000F7011183008360E070E080EC9FE7BCC0E5
:103ED000882311F001501109A5E0B0E00E94712182
:103EE0009B01AC01220F331F441F551F280D311DAC
:103EF000411D511D283999E93907490799E15907A9
:103F0000A8F2C6609C2ED2CFAEEF8A1206C0C3FDC7
:103F10003CC09C2E689493F8C9CFDF7DD534A9F5B9
:103F200080818D3239F4C061DF011296818162E0B7
:103F300070E006C0DF018B32C1F3119661E070E0E2
:103F400080535D01A61AB70A8A30F8F4E0E8CE166D
:103F5000ECE0DE065CF4B601660F771F660F771F94
:103F6000C60ED71ECC0CDD1CC80ED11C5D01FFEFA8
:103F7000AF1ABF0A8C9180538A30A8F1C4FF03C0E6
:103F8000D194C194D1080C0D1D1DC1FF09C0E114CD
:103F9000F10431F081E0A81AB108D701AD92BC92CA
:103FA000CA01B9010E944F20C370C33009F4905870
:103FB0004B015C0120E030E0A9010E944A208823E7
:103FC00009F440C0C3EED0E017FF05C0119501957C
:103FD0001109CBECD0E06E01B8E1CB1AD10880E238
:103FE000E82EF12C0FC0D501B1CFFE0125913591FE
:103FF000459154910E191F09C501B4010E94B020CA
:104000004B015C01D501C4010E151F0574F72497FF
:10401000F594E794CC16DD06A9F78A2F880F8B2F2D
:10402000881F8F3F49F020E030E0A901C501B401AD
:104030000E944A20811106C082E290E090937A03A8
:1040400080937903C501B401CDB7DEB7ECE00C94E1
:104050009E2191110C941D21803219F089508550B8
:10406000C8F70895FB01DC014150504088F08D9164
:1040700081341CF08B350CF4805E659161341CF04A
:104080006B350CF4605E861B611171F3990B08951A
:10409000881BFCCF0E948C2008F481E00895E894EE
:1040A00009C097FB3EF490958095709561957F4F80
:1040B0008F4F9F4F9923A9F0F92F96E9BB2793952E
:1040C000F695879577956795B795F111F8CFFAF43E
:1040D000BB0F11F460FF1BC06F5F7F4F8F4F9F4F6F
:1040E00016C0882311F096E911C0772321F09EE8CD
:1040F000872F762F05C0662371F096E8862F70E033
:1041000060E02AF09A95660F771F881FDAF7880F0C
:104110009695879597F90895990F0008550FAA0B62
:10412000E0E8FEEF16161706E807F907C0F01216CA
:104130001306E407F50798F0621B730B840B950BCD
:1041400039F40A2661F0232B242B252B21F4089522
:104150000A2609F4A140A6958FEF811D811D0895BF
:104160000E94C3200C9437210E94292138F00E941C
:10417000302120F0952311F00C9420210C9426215D
:1041800011240C946B210E94482170F3959FC1F378
:10419000950F50E0551F629FF001729FBB27F00DF5
:1041A000B11D639FAA27F00DB11DAA1F649F66274A
:1041B000B00DA11D661F829F2227B00DA11D621F99
:1041C000739FB00DA11D621F839FA00D611D221F53
:1041D000749F3327A00D611D231F849F600D211D37
:1041E000822F762F6A2F11249F5750409AF0F1F0BA
:1041F00088234AF0EE0FFF1FBB1F661F771F881F23
:1042000091505040A9F79E3F510580F00C94202119
:104210000C946B215F3FE4F3983ED4F38695779539
:104220006795B795F795E7959F5FC1F7FE2B880FC8
:10423000911D9695879597F9089599278827089550
:1042400097F99F6780E870E060E008959FEF80EC49
:10425000089500240A9416161706180609060895EC
:1042600000240A9412161306140605060895092E52
:104270000394000C11F4882352F0BB0F40F4BF2BC1
:1042800011F460FF04C06F5F7F4F8F4F9F4F089501
:1042900057FD9058440F551F59F05F3F71F04795F7
:1042A000880F97FB991F61F09F3F79F087950895DC
:1042B000121613061406551FF2CF4695F1DF08C0FB
:1042C000161617061806991FF1CF86957105610518
:1042D00008940895E894BB2766277727CB0197F9C0
:1042E00008950E94B321A59F900DB49F900DA49FA7
:1042F000800D911D112408952F923F924F925F924D
:104300006F927F928F929F92AF92BF92CF92DF92E5
:10431000EF92FF920F931F93CF93DF93CDB7DEB74A
:10432000CA1BDB0B0FB6F894DEBF0FBECDBF0994DE
:104330002A88398848885F846E847D848C849B8435
:10434000AA84B984C884DF80EE80FD800C811B8143
:10435000AA81B981CE0FD11D0FB6F894DEBF0FBE72
:10436000CDBFED010895A29FB001B39FC001A39FEF
:10437000700D811D1124911DB29F700D811D11249E
:10438000911D0895A1E21A2EAA1BBB1BFD010DC0B1
:10439000AA1FBB1FEE1FFF1FA217B307E407F507F5
:1043A00020F0A21BB30BE40BF50B661F771F881FD1
:1043B000991F1A9469F760957095809590959B0167
:1043C000AC01BD01CF010895EE0FFF1F0590F491E0
:1043D000E02D09945058BB27AA270E9402220C9472
:1043E00037210E94292138F00E94302120F039F431
:1043F0009F3F19F426F40C9426210EF4E095E7FB78
:104400000C942021E92F0E94482158F3BA17620723
:1044100073078407950720F079F4A6F50C946A21B8
:104420000EF4E0950B2EBA2FA02D0B01B9019001CF
:104430000C01CA01A0011124FF27591B99F0593F13
:1044400050F4503E68F11A16F040A22F232F342F5B
:104450004427585FF3CF469537952795A795F040A9
:104460005395C9F77EF41F16BA0B620B730B840BBE
:10447000BAF09150A1F0FF0FBB1F661F771F881F76
:10448000C2F70EC0BA0F621F731F841F48F48795CE
:1044900077956795B795F7959E3F08F0B0CF9395C0
:1044A000880F08F09927EE0F9795879508950E9439
:1044B0006B220C9437210E94302158F00E94292150
:1044C00040F029F45F3F29F00C94202151110C9405
:1044D0006B210C9426210E94482168F39923B1F3A3
:1044E000552391F3951B550BBB27AA27621773071A
:1044F000840738F09F5F5F4F220F331F441FAA1FAE
:10450000A9F335D00E2E3AF0E0E832D09150504069
:10451000E695001CCAF72BD0FE2F29D0660F771F17
:10452000881FBB1F261737074807AB07B0E809F0FD
:10453000BB0B802DBF01FF2793585F4F3AF09E3F82
:10454000510578F00C9420210C946B215F3FE4F32B
:10455000983ED4F3869577956795B795F7959F5FC5
:10456000C9F7880F911D9695879597F90895E1E011
:10457000660F771F881FBB1F621773078407BA0770
:1045800020F0621B730B840BBA0BEE1F88F7E095CB
:1045900008950E94D0226894B1110C946B21089563
:1045A0000E94502188F09F5798F0B92F9927B75152
:1045B000B0F0E1F0660F771F881F991F1AF0BA95C7
:1045C000C9F714C0B13091F00E946A21B1E008959A
:1045D0000C946A21672F782F8827B85F39F0B93F8C
:1045E000CCF3869577956795B395D9F73EF490957A
:1045F0008095709561957F4F8F4F9F4F08950E94D2
:104600008C2008F48FEF08950E948C20880B990B62
:1046100008950F931F93CF93DF938230910510F489
:1046200082E090E0E0917D03F0917E0330E020E0B5
:10463000B0E0A0E0309799F42115310509F44AC0A3
:10464000281B390B24303105D8F58A819B816115EF
:10465000710589F1FB0193838283FE0111C04081C2
:1046600051810281138148175907E0F04817590713
:1046700099F4109761F012960C93129713961C936D
:104680003296CF01DF91CF911F910F910895009342
:104690007D0310937E03F4CF2115310551F04217AD
:1046A000530738F0A901DB019A01BD01DF01F801D0
:1046B000C1CFEF01F9CF90937E0380937D03CDCFDF
:1046C000FE01E20FF31F8193919322503109398348
:1046D0002883D7CF20917B0330917C03232B41F497
:1046E00020911F013091200130937C0320937B03A4
:1046F00020911D0130911E012115310541F42DB786
:104700003EB74091210150912201241B350BE091CD
:104710007B03F0917C03E217F307A0F42E1B3F0B01
:104720002817390778F0AC014E5F5F4F2417350723
:1047300048F04E0F5F1F50937C0340937B0381939F
:1047400091939FCFF0E0E0E09CCFCF93DF93009771
:10475000E9F0FC01329713821282A0917D03B0919F
:104760007E03ED0130E020E01097A1F4208131813B
:10477000820F931F20917B0330917C032817390708
:1047800009F061C0F0937C03E0937B03DF91CF914C
:104790000895EA01CE17DF07E8F54A815B819E01A3
:1047A00041155105B1F7E901FB83EA83499159911C
:1047B000C40FD51FEC17FD0761F48081918102962B
:1047C000840F951FE90199838883828193819B835C
:1047D0008A83F0E0E0E012968D919C911397009708
:1047E000B9F52D913C911197CD010296820F931F3F
:1047F00020917B0330917C032817390739F63097D5
:1048000051F510927E0310927D03B0937C03A09328
:104810007B03BCCFD383C28340815181840F951F1A
:10482000C817D90761F44E5F5F4F88819981480F9F
:10483000591F518340838A819B81938382832115F1
:10484000310509F0B0CFF0937E03E0937D039ECF56
:10485000FD01DC01C0CF13821282D7CFB0E0A0E00F
:10486000E4E3F4E20C947E218C01009751F4CB0137
:104870000E9409238C01C801CDB7DEB7E0E10C949A
:104880009A21FC01E60FF71F9C0122503109E21723
:10489000F30708F49DC0D901CD91DC911197C6179B
:1048A000D70798F0C530D10530F3CE0104978617AD
:1048B000970708F3C61BD70B2297C193D1936D932B
:1048C0007C93CF010E94A523D6CF5B01AC1ABD0A11
:1048D0004C018C0E9D1EA0917D03B0917E03512C46
:1048E000412CF12CE12C109731F580917B039091B4
:1048F0007C038815990509F05CC04616570608F038
:1049000058C080911D0190911E01009741F48DB710
:104910009EB74091210150912201841B950BE8170D
:10492000F90708F055C0F0937C03E0937B03F9018D
:1049300071836083A0CF8D919C91119712966C909A
:10494000129713967C901397A815B90559F56C0129
:1049500042E0C40ED11CCA14DB0420F1AC014A1998
:104960005B09DA011296159780F062827382518397
:104970004083D9016D937C93E114F10471F0D70168
:104980001396FC93EE93129776CF22968C0F9D1F71
:10499000F90191838083F301EFCFF0937E03E093DD
:1049A0007D0369CF4816590608F42C017D01D30117
:1049B0009ACFCB010E9409237C01009749F0AE01F8
:1049C000B8010E94EB24C8010E94A523870153CFA0
:1049D00010E000E050CFFB01DC0102C001900D921D
:1049E00041505040D8F70895FB01DC0101900D9231
:1049F0000020E1F70895FB01DC014150504030F008
:104A00008D910190801919F40020B9F7881B990B3A
:104A10000895FB01DC014150504048F001900D9297
:104A20000020C9F701C01D9241505040E0F70895A1
:104A300011E0C4E0D1E004C0FE010E94E42121960F
:0A4A4000C530D107C9F7F894FFCF85
:104A4A00FFFFFFFF00E10000000000002602CDCCBE
:104A5A000C409A99193E00C1808100000000007F35
:104A6A00038000000000006D07E7106E076210CD9A
:104A7A0013000000006D07E9106E07EC0F821300A7
:104A8A000000006D07EB106E07A70F33130000003C
:104A9A0000B906A306DA06CF065307DF062F07007A
:104AAA000000004E0A210A7D0A5E181A0A070AF84F
:104ABA000900000000A1010705CC04C401000000A0
:104ACA0000ED106E616E00696E66006F7666004DCD
:104ADA005055363035305F54004D505536303530EC
:104AEA005F41004D5055363035305F470041434BEA
:104AFA005F53454E533A000D0A0041434B5F444110
:0E4B0A004D503A0041434B5F544852453A002B
:00000001FF
